:100000001CC0000000000000000000000000000014
:1000100000000000000000000000000000000000E0
:1000200000000000000000000C9453000C943F00FE
:100030000C941C000C941C00189588E08EBF8FEF68
:100040008DBF80E08093C1000C9426008EEF8AB9AA
:10005000289A88278093800088E1809389008827E8
:100060008093880082E280936F008DE88093810006
:10007000332755279927BB27789444D0FFCF8F93F8
:100080008FB78F938091810086FF02C03FEF07C03A
:10009000503021F05CD03CD055279927BBB98F91C7
:1000A0008FBF8F9118951F938F938F928FB68F92DA
:1000B0008090860080908700132F1829E9F011277F
:1000C00010938500109384001091810016FF0BC0DF
:1000D0001F7B332319F48CE0881618F0990F939541
:1000E00007C0990F05C01064109381000BD004C0A5
:1000F00053951093810033278F908FBE8F908F91EF
:100100001F9118959F9395E203D0BBB99F910895D5
:10011000EF93FF939F73E8E2F1E0E90F08F4F395A2
:10012000B491FF91EF910895098347A1070F1189B9
:10013000CFF10BC76BABA30D19AF1387C1E3D58903
:10014000912541F92531991303790119C9FF90309F
:10015000A9F4513049F0523049F0533049F054304D
:1001600049F0553049F0C3C094E0C2C098E0C0C027
:1001700092E1BEC097E0BCC09FE1BAC09130C9F423
:10018000503059F0513059F0523059F0533059F045
:10019000543059F0553059F0AAC095E2A9C093E106
:1001A000A7C090E0A5C094E1A3C095E1A1C09EE1E5
:1001B0009FC0923069F4523029F0533029F0543006
:1001C00029F095C09DE094C091E192C095E090C067
:1001D000933069F4523029F0533029F0553029F02A
:1001E00086C09CE085C096E183C09DE181C09430CB
:1001F00049F4533019F0543019F079C093E078C0C5
:100200009BE076C0953029F4533009F070C09AE035
:100210006FC0963049F4533019F0543019F067C06C
:1002200096E066C09FE064C0973069F4533029F0CF
:10023000543029F0553029F05AC09EE059C099E059
:1002400057C09CE155C0983029F4543009F04FC094
:1002500091E04EC0993029F4543009F048C097E13C
:1002600047C09A3029F4543009F041C092E040C0B0
:100270009B3029F4543009F03AC098E139C09C30E1
:1002800029F4543009F033C099E132C09D3029F48B
:10029000543009F02CC090E12BC09F3029F4553028
:1002A00009F025C09BE124C0903129F4553009F0B4
:1002B0001EC090E21DC0983129F4553009F017C0D6
:1002C00091E216C09C3129F4553009F010C092E239
:1002D0000FC09E3129F4553009F009C093E208C0DF
:1002E0009F3129F4553009F002C09AE101C094E22F
:0202F00008956F
:00000001FF
